:020000040800F2
:10000000000001206900000800000000290100082C
:1000100000000000000000009D000008000000003B
:10002000000000000000000000000000C501000802
:1000300000000000000000000000000015020008A1
:1000400000000000000000000000000000000000B0
:1000500000000000000000000000000000000000A0
:1000600000000000A900000800F0F0F800F058FAC5
:1000700000F012F94FF000004FF001014FF00202C2
:100080004FF003034FF0040C4FF0050EFFFFFFFF8E
:1000900001DF00F0A9F862B602488047684600F028
:1000A00003B90000C503000810B5094C207800F022
:1000B000080018B907A000F027FA02E009A000F034
:1000C00023FA032000F016F8092000F065F810BDAF
:1000D000081801404B45592070726573736564219F
:1000E0000A0D00004B45592072656C6561736564AB
:1000F000210A0D0003494A69012383401A434A61DA
:1001000070470000000401400648816841F0080182
:100110008160C16841F00801C160016841F00801D7
:10012000016070470004014002A000F0EDF900BF3B
:10013000FEE70000486172644661756C745F486157
:100140006E646C65720D0A001049114A136843F021
:1001500001031360136843F0400313600D48036804
:1001600023F470430360036843F4004303600948C9
:100170001030036843F0080303608B6823F4704376
:100180008B608B6843F480438B60704700000140B4
:10019000181002400018014005491F2806DCD1F85C
:1001A0008021012383401A43C1F880217047000059
:1001B00000E100E00248016841F40071016070470D
:1001C00000E100E010B503A000F09EF905A000F0EA
:1001D0009BF910BD5356435F48616E646C65720DA8
:1001E0000A0000000D0A00000848094981604160CA
:1001F000016841F004010160016841F00201016001
:10020000016841F0010101607047000010E000E06A
:1002100000127A0010B5074C606840F00070606012
:10022000054801680068401C034B186003A000F0FB
:100230002DF910BD00ED00E0040000207379737407
:1002400069636B20636E74203D20000010B50A487E
:100250000A49884202D00A4A00F09CF809480A4933
:10026000884202D0094A00F095F8094A002109485D
:1002700000F09DF810BD000000000008000000081C
:10028000740500000000002074050008080000004C
:10029000C0000000080000200248416A41F48021AB
:1002A0004162704700ED00E070B50446164D17A09E
:1002B00000F02AF91BA0216800F0E8F81BA0616893
:1002C00000F0E4F81BA0A16800F0E0F81BA0E168D2
:1002D00000F0DCF81BA0216900F0D8F81BA06169D0
:1002E00000F0D4F81BA0A16900F0D0F81BA0E169D0
:1002F00000F0CCF81BA000F007F9A86AA862A0697A
:10030000001DA06170BD000000ED00E05573616745
:10031000654661756C745F48616E646C65720D0A48
:10032000000000005230203D200000005231203DEE
:10033000200000005232203D200000005233203DBA
:1003400020000000523132203D2000004C52203D60
:10035000200000005043203D200000007850535200
:10036000203D20000D0A000000EB8001480000BF86
:10037000011EA0F10100FBD170470000044900BF3D
:10038000086800F020000028FAD048687047000094
:100390000038014070B503460C4603E025781D7017
:1003A000641C5B1C151EA2F10102F7D170BD30B5B3
:1003B000034601E019705B1C141EA2F10102F9D181
:1003C00030BD0000184CFFF7BFFEFFF79DFEFFF7A2
:1003D000F1FE28E0FFF7D2FF1448007800F066F83D
:1003E000422000F063F80A2000F060F80F4910A0E6
:1003F00000F04CF8124913A000F048F815480168C5
:1004000015A000F043F81748016817A000F03EF867
:100410001848016818A000F039F80A2000F046F8E2
:10042000012118A0A047D5E78D0400080000002096
:10043000675F63686172312061646472203D2000EF
:1004400070050008675F63686172322061646472DE
:10045000203D200008000020675F412076616C206D
:100460003D20000048000020675F422076616C203C
:100470003D20000088000020735F432076616C20DF
:100480003D200000546573742E00000070B50546D1
:100490000C46284600F038F8204600F013F802A079
:1004A00000F032F870BD00000D0A0000044900BFE2
:1004B0000A6802F08002002AFAD048607047000003
:1004C0000038014070B506460EA000F01DF8072563
:1004D00014E0A80026FA00F000F00F04002C07DB5F
:1004E000092C05DC04F13001C8B2FFF7DFFF04E09E
:1004F00004F13701C8B2FFF7D9FF6D1E002DE8DA0D
:1005000070BD00003078000010B5044603E020788C
:10051000FFF7CCFF641C20780028F8D110BD000044
:1005200010491148026844F204031A4302600F485C
:10053000026822F0F0020260026842F0900202605B
:10054000026822F470620260026842F48062026013
:1005500045228A6042F20C02CA600A6922F44052C3
:100560000A61704700380140181002400408014039
:0C057000420000004100000000000000FC
:0400000500000000F7
:00000001FF
