:020000040800F2
:100000000000000009000008DFF808D000F05EF8EA
:1000100000F0AAF80000012010B5203AC0F00B80D3
:10002000B1E81850203AA0E81850B1E81850A0E8FC
:100030001850BFF4F5AF5FEA027C24BFB1E8185056
:10004000A0E8185044BF18C918C0BDE810405FEAC6
:10005000827C24BF51F8043B40F8043B08BF704742
:10006000D20728BF31F8023B48BF11F8012B28BF47
:1000700020F8023B48BF00F8012B70474FF0000208
:1000800000B5134694469646203922BFA0E80C508E
:10009000A0E80C50B1F12001BFF4F7AF090728BF69
:1000A000A0E80C5048BF0CC05DF804EB890028BFE5
:1000B00040F8042B08BF704748BF20F8022B11F00E
:1000C000804F18BF00F8012B7047000010B5074A99
:1000D00007490848FFF7A0FF074A08490848FFF703
:1000E0009BFF08490848FFF7C9FF10BD1003000037
:1000F00000000008000000200400000010030008B9
:1001000010030020C00000001403002000EB800159
:10011000480000BF011EA0F10100FBD170470000A4
:10012000044900BF086800F020000028FAD04868A1
:10013000704700000038014070B503460C4603E0EC
:1001400025781D70641C5B1C151EA2F10102F7D1FD
:1001500070BD30B5034601E019705B1C141EA2F19E
:100160000102F9D130BD0000164C00F0A7F828E0DC
:10017000FFF7D6FF1448007800F066F8422000F040
:1001800063F80A2000F060F80F4910A000F04CF866
:10019000124913A000F048F81548016815A000F0B6
:1001A00043F81748016817A000F03EF818480168A6
:1001B00018A000F039F80A2000F046F8012118A034
:1001C000A047D5E72902002010030020675F63687D
:1001D0006172312061646472203D20000C030020B4
:1001E000675F63686172322061646472203D200041
:1001F00014030020675F412076616C203D200000E1
:1002000054030020675F422076616C203D2000008F
:1002100094030020735F432076616C203D20000032
:10022000546573742E00000070B505460C462846D0
:1002300000F038F8204600F013F802A000F032F881
:1002400070BD00000D0A0000044900BF0A6802F0FA
:100250008002002AFAD04860704700000038014050
:1002600070B506460EA000F01DF8072514E0A800A2
:1002700026FA00F000F00F04002C07DB092C05DC47
:1002800004F13001C8B2FFF7DFFF04E004F13701E9
:10029000C8B2FFF7D9FF6D1E002DE8DA70BD00006F
:1002A0003078000010B5044603E02078FFF7CCFF5B
:1002B000641C20780028F8D110BD000010491148B6
:1002C000026844F204031A4302600F48026822F0F5
:1002D000F0020260026842F090020260026822F4BA
:1002E00070620260026842F48062026045228A60A5
:1002F00042F20C02CA600A6922F440520A61704755
:10030000003801401810024004080140420000007B
:0403100041000000A8
:0400000500000000F7
:00000001FF
