:020000040800F2
:1000000000000000A500000800F002F800F03AF837
:100010000AA090E8000C82448344AAF10107DA4563
:1000200001D100F02FF8AFF2090EBAE80F0013F07B
:10003000010F18BFFB1A43F0010318471C0300000F
:100040003C030000103A24BF78C878C1FAD85207A0
:1000500024BF30C830C144BF04680C607047000042
:100060000023002400250026103A28BF78C1FBD8C1
:10007000520728BF30C148BF0B6070471FB51FBD76
:1000800010B510BD00F02AF81146FFF7F7FF00F099
:1000900083F800F048F803B4FFF7F2FF03BC00F068
:1000A00069F80000DFF81CD007480849084A00F04A
:1000B000C7F808484FF00001074A00F0CEF800F0FA
:1000C0006BF8000000000120000000207803000809
:1000D000040000000400002020010000754600F02C
:1000E0002BF8AE4605006946534620F007008546CA
:1000F00018B020B500F024F8BDE820404FF000060D
:100100004FF000074FF000084FF0000B21F00701FF
:10011000AC46ACE8C009ACE8C009ACE8C009ACE842
:10012000C0098D46704710B50446AFF300802046E5
:10013000BDE81040FFF7AFBF00487047C400002083
:1001400000B54FF0160085B0694601AA0A60ABBE43
:100150000198002802BF0548C01D20F00700039940
:10016000029A049B05B000BD0900000000000000D9
:100170007047000001491820ABBEFEE726000200D0
:10018000044900BF086800F020000028FAD0486841
:10019000704700000038014000F0B4F822E0FFF79B
:1001A000EFFF1148007800F073F8422000F070F87B
:1001B0000A2000F06DF80C490CA000F059F80F4926
:1001C0000FA000F055F81248016812A000F050F896
:1001D0001348016813A000F04BF81548016815A0FA
:1001E00000F046F8DBE7000000000020675F63686E
:1001F0006172312061646472203D20005403000864
:10020000675F63686172322061646472203D200020
:1002100004000020675F412076616C203D200000D3
:1002200044000020675F422076616C203D20000082
:1002300084000020735F432076616C203D20000025
:1002400070B503460C4603E025781D70641C5B1CEA
:10025000151EA2F10102F7D170BD30B5034601E0D1
:1002600019705B1C141EA2F10102F9D130BD00000F
:1002700070B505460C46284600F038F8204600F0D8
:1002800013F802A000F032F870BD00000D0A000063
:10029000044900BF0A6802F08002002AFAD04860D0
:1002A000704700000038014070B506460EA000F00F
:1002B0001DF8072514E0A80026FA00F000F00F044E
:1002C000002C07DB092C05DC04F13001C8B2FFF774
:1002D000DFFF04E004F13701C8B2FFF7D9FF6D1E5C
:1002E000002DE8DA70BD00003078000010B504463B
:1002F00003E02078FFF7CCFF641C20780028F8D1B9
:1003000010BD000010491148026844F204031A436A
:1003100002600F48026822F0F0020260026842F0B8
:1003200090020260026822F470620260026842F485
:100330008062026045228A6042F20C02CA600A6949
:1003400022F440520A617047003801401810024000
:10035000040801404200000078030008000000206B
:1003600004000000440000087C0300080400002092
:0C037000200100006000000841000000B7
:0400000508000009E6
:00000001FF
