:020000040800F2
:100000000000000009000008DFF824D009480A4970
:100010000A4A00F035F80A480A490B4A00F030F85D
:100020000A484FF000010A4A00F037F800F040F8A3
:10003000000001200000002000000008580200001D
:100040005802002058020008040000005C02002052
:10005000C000000000EB8001480000BF011EA0F1BD
:100060000100FBD170470000044900BF086800F0A0
:1000700020000028FAD0486870470000003801408E
:1000800070B503460C4603E025781D70641C5B1CAC
:10009000151EA2F10102F7D170BD30B5034601E093
:1000A00019705B1C141EA2F10102F9D130BD0000D1
:1000B000164C00F0A7F828E0FFF7D6FF14480078A8
:1000C00000F066F8422000F063F80A2000F060F8C3
:1000D0000F4910A000F04CF8124913A000F048F8A6
:1000E0001548016815A000F043F81748016817A0EB
:1000F00000F03EF81848016818A000F039F80A200E
:1001000000F046F8012118A0A047D5E771010020B2
:1001100058020020675F6368617231206164647215
:10012000203D200054020020675F63686172322026
:1001300061646472203D20005C020020675F412002
:1001400076616C203D2000009C020020675F422009
:1001500076616C203D200000DC020020735F4320AC
:1001600076616C203D200000546573742E00000001
:1001700070B505460C46284600F038F8204600F0D9
:1001800013F802A000F032F870BD00000D0A000064
:10019000044900BF0A6802F08002002AFAD04860D1
:1001A000704700000038014070B506460EA000F010
:1001B0001DF8072514E0A80026FA00F000F00F044F
:1001C000002C07DB092C05DC04F13001C8B2FFF775
:1001D000DFFF04E004F13701C8B2FFF7D9FF6D1E5D
:1001E000002DE8DA70BD00003078000010B504463C
:1001F00003E02078FFF7CCFF641C20780028F8D1BA
:1002000010BD000010491148026844F204031A436B
:1002100002600F48026822F0F0020260026842F0B9
:1002200090020260026822F470620260026842F486
:100230008062026045228A6042F20C02CA600A694A
:1002400022F440520A617047003801401810024001
:0C025000040801404200000041000000D2
:0400000500000000F7
:00000001FF
