:020000040800F2
:1000000000000000A500000800F002F800F03AF837
:100010000AA090E8000C82448344AAF10107DA4563
:1000200001D100F02FF8AFF2090EBAE80F0013F07B
:10003000010F18BFFB1A43F00103184770020000BC
:1000400090020000103A24BF78C878C1FAD852074D
:1000500024BF30C830C144BF04680C607047000042
:100060000023002400250026103A28BF78C1FBD8C1
:10007000520728BF30C148BF0B6070471FB51FBD76
:1000800010B510BD00F014F81146FFF7F7FF00F0AF
:100090006DF800F032F803B4FFF7F2FF03BC00F094
:1000A00053F80000DFF804D000F060F800000120F1
:1000B000754600F02BF8AE4605006946534620F021
:1000C0000700854618B020B500F024F8BDE82040B0
:1000D0004FF000064FF000074FF000084FF0000B04
:1000E00021F00701AC46ACE8C009ACE8C009ACE8B7
:1000F000C009ACE8C0098D46704710B50446AFF39F
:1001000000802046BDE81040FFF7C5BF004870479B
:100110000400002000B54FF0160085B0694601AA22
:100120000A60ABBE0198002802BF0548C01D20F040
:1001300007000399029A049B05B000BD0900000066
:10014000640000207047000001491820ABBEFEE7A4
:1001500026000200044900BF086800F020000028C3
:10016000FAD04868704700000038014000F074F889
:1001700013E0FFF7EFFF0948007800F033F8422062
:1001800000F030F80A2000F02DF8044904A000F037
:1001900019F8074907A000F015F8EAE70000002069
:1001A000675F63686172312061646472203D200082
:1001B000A8020008675F636861723220616464723C
:1001C000203D200070B505460C46284600F038F862
:1001D000204600F013F802A000F032F870BD0000D5
:1001E0000D0A0000044900BF0A6802F08002002ADC
:1001F000FAD04860704700000038014070B50646EC
:100200000EA000F01DF8072514E0A80026FA00F063
:1002100000F00F04002C07DB092C05DC04F1300191
:10022000C8B2FFF7DFFF04E004F13701C8B2FFF7FF
:10023000D9FF6D1E002DE8DA70BD00003078000097
:1002400010B5044603E02078FFF7CCFF641C20784B
:100250000028F8D110BD000010491148026844F28E
:1002600004031A4302600F48026822F0F0020260A1
:10027000026842F090020260026822F4706202603A
:10028000026842F48062026045228A6042F20C02F7
:10029000CA600A6922F440520A617047003801407E
:1002A000181002400408014042000000CC0200087F
:1002B000000000200400000044000008D0020008F4
:1002C0000400002060000000600000084100000001
:04000005080000A54A
:00000001FF
