:020000040800F2
:100000000000000041000008000000003501000869
:100010000000000000000000770000080000000061
:100020000000000000000000000000005501000872
:10003000000000000000000000000000A501000812
:10004000DFF838D000F0CAF800F02AFA00F0EAF839
:100050004FF000004FF001014FF002024FF0030398
:100060004FF0040C4FF0050EFFFFFFFF01DF00F023
:1000700083F800F06DF9684600F0DCB8000001205C
:1000800010B5203AC0F00B80B1E81850203AA0E833
:100090001850B1E81850A0E81850BFF4F5AF5FEA67
:1000A000027C24BFB1E81850A0E8185044BF18C91A
:1000B00018C0BDE810405FEA827C24BF51F8043BC1
:1000C00040F8043B08BF7047D20728BF31F8023B15
:1000D00048BF11F8012B28BF20F8023B48BF00F8A9
:1000E000012B70474FF0000200B513469446964628
:1000F000203922BFA0E80C50A0E80C50B1F120013B
:10010000BFF4F7AF090728BFA0E80C5048BF0CC0E8
:100110005DF804EB890028BF40F8042B08BF704746
:1001200048BF20F8022B11F0804F18BF00F8012BB8
:100130007047000002A000F0A7F900BFFEE7000032
:10014000486172644661756C745F48616E646C6589
:10015000720D0A0010B503A000F096F905A000F09A
:1001600093F910BD5356435F48616E646C65720D20
:100170000A0000000D0A000008480949816041603A
:10018000016841F004010160016841F00201016071
:10019000016841F0010101607047000010E000E0DB
:1001A00000127A0010B5074C606840F00070606083
:1001B000054801680068401C034B186003A000F06C
:1001C00025F910BD00ED00E0040000207379737480
:1001D00069636B20636E74203D20000010B50948F0
:1001E0000949884202D0094AFFF74AFF08480949ED
:1001F000884202D0084AFFF743FF08490848FFF742
:1002000071FF10BD0000000800000008F4040000A9
:1002100000000020F404000808000000C0000000F6
:10022000080000200248416A41F480214162704781
:1002300000ED00E070B50446164D17A000F024F95B
:100240001BA0216800F0E2F81BA0616800F0DEF856
:100250001BA0A16800F0DAF81BA0E16800F0D6F856
:100260001BA0216900F0D2F81BA0616900F0CEF854
:100270001BA0A16900F0CAF81BA0E16900F0C6F854
:100280001BA000F001F9A86AA862A069001DA06186
:1002900070BD000000ED00E0557361676546617553
:1002A0006C745F48616E646C65720D0A000000003A
:1002B0005230203D200000005231203D200000003F
:1002C0005232203D200000005233203D200000002B
:1002D000523132203D2000004C52203D20000000D1
:1002E0005043203D2000000078505352203D200014
:1002F0000D0A000000EB8001480000BF011EA0F1C4
:100300000100FBD170470000044900BF086800F0FD
:1003100020000028FAD048687047000000380140EB
:1003200070B503460C4603E025781D70641C5B1C09
:10033000151EA2F10102F7D170BD30B5034601E0F0
:1003400019705B1C141EA2F10102F9D130BD00002E
:10035000154C28E0FFF7D8FF1448007800F066F845
:10036000422000F063F80A2000F060F80F4910A066
:1003700000F04CF8124913A000F048F81548016845
:1003800015A000F043F81748016817A000F03EF8E8
:100390001848016818A000F039F80A2000F046F863
:1003A000012118A0A047D5E70D0400080000002097
:1003B000675F63686172312061646472203D200070
:1003C000F0040008675F63686172322061646472E0
:1003D000203D200008000020675F412076616C20EE
:1003E0003D20000048000020675F422076616C20BD
:1003F0003D20000088000020735F432076616C2060
:100400003D200000546573742E00000070B5054651
:100410000C46284600F038F8204600F013F802A0F9
:1004200000F032F870BD00000D0A0000044900BF62
:100430000A6802F08002002AFAD048607047000083
:100440000038014070B506460EA000F01DF80725E3
:1004500014E0A80026FA00F000F00F04002C07DBDF
:10046000092C05DC04F13001C8B2FFF7DFFF04E01E
:1004700004F13701C8B2FFF7D9FF6D1E002DE8DA8D
:1004800070BD00003078000010B5044603E020780D
:10049000FFF7CCFF641C20780028F8D110BD0000C5
:1004A00010491148026844F204031A4302600F48DD
:1004B000026822F0F0020260026842F090020260DC
:1004C000026822F470620260026842F48062026094
:1004D00045228A6042F20C02CA600A6922F4405244
:1004E0000A617047003801401810024004080140BA
:0C04F0004200000041000000000000007D
:0400000500000000F7
:00000001FF
